:100000000C943A000C9444000C9444000C9444006A
:100010000C9444000C9444000C9444000C94440050
:100020000C9444000C9444000C9444000C94440040
:100030000C9444000C9444000C9444000C94440030
:100040000C9444000C9444000C9444000C94440020
:100050000C9444000C9444000C9444000C94440010
:100060000C9444000C9444000C9444000C94440000
:100070000C94440011241FBECFEFD4E0DEBFCDBFEF
:100080000E9468000C9478000C940000E1E6F0E017
:1000900080E880831082A89584B7877F84BFE0E6DC
:1000A000F0E08081886180831082089589B1082EF4
:1000B000000C990B892F881F8827881F90E00895CE
:1000C00057980895429A0895429808953A9A089543
:1000D0000E9446000E9466000E9460000E94560036
:1000E000892B19F00E946200F9CF0E946400F6CFBC
:0400F000F894FFCFB2
:00000001FF
