:100000000C943A000C944C000C944C000C944C0052
:100010000C944C000C944C000C944C000C944C0030
:100020000C944C000C944C000C944C000C944C0020
:100030000C944C000C944C000C944C000C944C0010
:100040000C944C000C944C000C944C000C944C0000
:100050000C944C000C944C000C944C000C944C00F0
:100060000C944C000C944C000C944C000C944C00E0
:100070000C944C0011241FBECFEFD4E0DEBFCDBFE7
:1000800021E0A0E0B1E001C01D92A230B207E1F78B
:100090000E9494000C9401010C940000E1E6F0E051
:1000A00080E880831082A89584B7877F84BFE0E6CC
:1000B000F0E080818861808310820895811105C0FD
:1000C000662311F0429A0895429808953A9A429A06
:1000D00008951092800025E0209381001092820004
:1000E000BC0180E090E024E83EE140E050E00E9466
:1000F000A70028EE33E040E050E00E94C0003093BB
:100100000101209300010895809100019091010167
:10011000209184003091850028173907C8F3109288
:1001200085001092840008950E944E000E9466008F
:1001300084EF91E00E946900C0E0D1E00E94840059
:100140006C2F617080E00E945E00CD27F7CFEE2714
:10015000FF27AA27BB2708C0A20FB31FE41FF51F64
:10016000220F331F441F551F9695879577956795E6
:1001700098F37040A9F7009799F7BD01CF01089552
:10018000052E97FB1EF400940E94D70057FD07D060
:100190000E94DF0007FC03D04EF40C94D70050956A
:1001A0004095309521953F4F4F4F5F4F0895909563
:1001B0008095709561957F4F8F4F9F4F0895A1E275
:1001C0001A2EAA1BBB1BFD010DC0AA1FBB1FEE1FD1
:1001D000FF1FA217B307E407F50720F0A21BB30B1C
:1001E000E40BF50B661F771F881F991F1A9469F798
:1001F00060957095809590959B01AC01BD01CF01F4
:060200000895F894FFCF01
:00000001FF
